:020000021000EC
:108000000040002091FC0100CDFC0100CFFC0100EC
:108010000000000000000000000000000000000060
:10802000000000000000000000000000D1FC010082
:108030000000000000000000D3FC0100D5FC01009E
:10804000D7FC010095AB01004D030200D7FC0100F5
:10805000D7FC01000000000009FD0100D7FC010071
:10806000D7FC010025050200D5010200D7FC010064
:10807000D7FC0100D7FC0100D7FC0100D7FC0100B0
:10808000D7FC0100D7FC0100D7FC0100D7FC0100A0
:10809000D7FC0100E9DF010069E10100D7FC010024
:1080A000D7FC0100D7FC0100000000000000000028
:1080B00000000000000000000000000000000000C0
:1080C0000448054B10B5834203D0044B002B00D06D
:1080D000984710BDAC200020AC200020000000001C
:1080E00006480749091A8B10C90FC91810B549105D
:1080F00003D0044B002B00D0984710BDAC200020CB
:10810000AC2000200000000010B5074C2378002BA5
:1081100009D1FFF7D5FF054B002B02D0044800E042
:1081200000BF0123237010BDC82000200000000004
:108130007C750200054B10B5002B03D0044905489F
:1081400000E000BFFFF7CCFF10BDC04600000000FC
:10815000CC2000207C750200402292029A1A92469E
:108160007047C046154B002B00D1114B9D46FFF7C1
:10817000F3FF00218B460F461148124A121A09F0EC
:1081800047FE0C4B002B00D098470B4B002B00D028
:1081900098470020002104000D000B4809F0C8FC9E
:1081A00009F00EFD200029000DF0B9FF09F0DEFCFA
:1081B0000000080000000000000000000040002057
:1081C000B0200020502A0020991B020010B50400A6
:1081D000034B036040300AF0FCFF200010BDC04696
:1081E000B864020037B5154800F02CF914480BF0BC
:1081F0009CFA144C144900280CD114480BF095FA41
:108200001349002806D1134D28000CF060FA1928F4
:108210000CDD114901A800F09FFF7822200001A980
:1082200002F0FAF801A80AF0D4FFDFE728000CF00A
:108230004EFA010001A80AF0E8FFEEE7E420002072
:108240004C220020D4210020AC6F020074220020B8
:10825000AE6F0200C4220020B06F020010B5054CC2
:10826000200000F039F82000034A04490EF0F6F827
:1082700010BDC046E42000200020002081820100C3
:10828000CB23144A9B0010B5C2501C330400C01805
:108290000AF09FFFD1239B00E0180AF09AFF20000C
:1082A0009130FF3001F058FB20006930FF3001F0C1
:1082B00053FB2000F03001F0C1FE2000D03002F06E
:1082C00041FA2000643007F041FC201DFFF77EFFDB
:1082D000200010BD446902001423F0B5040093B0DF
:1082E000192200931821043002F0A4FC2300250079
:1082F000260064331800B43513211093B83607F004
:1083000031FC28000CF089F900221E2130000BF00E
:1083100011FE2000D03002F035FA2300F03307219F
:108320001800454A119301F0B1FE200000270123F7
:1083300069301A0011210097FF3001F019FB20006D
:108340009130012302221A210097FF3001F010FB27
:108350002000B930022201210323FF3002F0DEFAAF
:10836000300001F00BF9E4235B00E050300001F035
:1083700059FBE6235B00E0500100E422200052009C
:10838000D130119BA2580095FF3001F04DFC200028
:10839000E13029000822FF3002F0E8FD78232000B8
:1083A0000F93013B0E93033B0D93013B0C93013B59
:1083B0000B93013B0A93013B0993013B0893013B5B
:1083C0000793013B0693013B0593013B0493013B5B
:1083D0000393013B0293013B0193F930013B65227A
:1083E00000936421013BFF300BF0C5FDCB239B00C4
:1083F0002900E01803F07AFDD4239B00E01809213E
:1084000002F064FBDE239B00E750109803212770E5
:108410000DF05BFD23002200200008499C33A032B0
:108420001C6082C2064A02215A618030012207F094
:108430001DFD200013B0F0BDC0640200D92D020064
:10844000C32D02000278F0B50123170004008FB09D
:108450001F401A4200D085E00300D0331800039378
:1084600000F0D2FA00F0E4F930200EF002F8050036
:1084700010300AF03DFF280024300AF0D1FD6F4B88
:1084800018202B600DF0F5FF06006D4B0822390017
:1084900004600C300C930D9709F0BAFC0CA908226B
:1084A000301D09F00DFC674B2900736112230398FE
:1084B000AE60EF60AB802F62EF6202F0D7F8002869
:1084C00005D028000AF039FE28000DF0CEFF012368
:1084D00027002278B437134323705B4938000CF02F
:1084E000A2F800265949059038000CF09CF8350098
:1084F0000690642000F018FC049623006933FF33D3
:10850000180007930BF011F900282DD1059B002BC3
:1085100034D1069B002B31D1DE254D494D48AD00AD
:1085200000F0C6FC6359002B1CD100F0A1F801003B
:108530000BA800F011FE0CA80AF0C2FCCB239B0094
:10854000E018069B0CAA0BA90093039B03F028FDDF
:108550000CA80AF03EFE0BA80AF03BFECD239B00C0
:10856000E35863510FB0F0BD20009130FF300BF0A5
:10857000DCF80028CAD0049B182BC7DC200065302B
:10858000FF2329B232B2FF3000F062FE322000F049
:10859000CBFB049B01350133EDB20493052D02D1D1
:1085A00000250136F6B2049B192B0AD0059B002B3F
:1085B000A3D03800244902F06BFC05980DF055FF5C
:1085C00002E0059B002BF4D1069B002B02D0180083
:1085D0000DF04BFF1E491F4800F06AFCCB239B00A7
:1085E000E3180893DE239B00E3580993002B1ED168
:1085F00000F03EF801000BA800F0AEFD0CA80AF058
:108600005FFC01230CAA0BA908980093039B03F0BD
:10861000C7FC0CA80AF0DDFD0BA80AF0DAFDCD239B
:108620009B00E3580993DE23099A9B00E250210046
:10863000079A0898F03103F0A3FE5EE7FD030000FF
:108640004B2E02000B2E0200B46F0200BF6F02001F
:1086500000200020001C0020BFF34F8F024B034A74
:10866000DA60BFF34F8FFEE700ED00E00400FA058B
:10867000F0B58BB003AF19223800154909F020FB83
:108680000023144D05266B7180235B055B6E2C0067
:108690000093012301933100009808F0DDF80800F1
:1086A000019908F053F80522009B56431B1A0093CA
:1086B000019B534301932B1B5343FB181B5C013C51
:1086C0006371054B9C42E6D102480BB0F0BDC04639
:1086D000057002008A29002085290020F0B595B098
:1086E0001822002104000EA809F092FB13210EA805
:1086F0000DF0FBFC03210EA80DF09AFD464B1B6804
:10870000002B00D10133DBB2009300210123434A47
:1087100009A807F01BFDFA239B009C429B411C40CB
:1087200072B63F4B64211E683E4B20000593052521
:1087300008F096F86843503030180A21069020005F
:1087400008F08EF80A2108F071F969435031711868
:10875000200007910A2108F069F969435031711826
:10876000802600240891B601009B002B52D004AD56
:108770000027032C02D180260024B6016B682A4A08
:1087800002936300D3180022019258780299095C81
:10879000039119788C4610216046014103980142EB
:1087A00004D0012090400199014301910132063328
:1087B000092AEAD1019B2A68D9431C4B09011940B7
:1087C000029B934224D1312F22DC002109A80DF015
:1087D000E8FDFA23139A0F99DB001068014219D0C3
:1087E000013B002BF9D1FA23013401377600E4B2C2
:1087F0005B009F42BDD1043508ABAB42B8D1064BFC
:108800001B68002BB0D0009B013BDBB20093ABE7B1
:108810003143DBE7FFF720FF64240020F0FF000076
:1088200004200020547002001E700200F01F00009F
:10883000F8B50023124C23600AF063FB002808D02F
:10884000042120000AF059FB002801D00D4B2360C1
:10885000F8BD0123A12704210B4A0C4D13602368A6
:10886000FF0068606E68002EFCD0D6591B020139EB
:1088700033430029F5D1236001235360E8E7C04664
:1088800060240020ED5EBC0B00D00040FCD0004016
:108890000B4B70B51C68002C10D0656D00F018FCF7
:1088A000A36C002901D1834206D820000AF080FB86
:1088B000200004490AF06CFB2C00ECE770BDC046B8
:1088C0006C2400208C240020F0B595B007932A4B2F
:1088D00004AC1E68049005910692002E49D0274BE7
:1088E000678825881C6800230293002C2DD0636DB7
:1088F00023480393A36C190C9AB20B00854214D140
:108900002048824211D1002901D0B9420BD1029BEB
:10891000002B08D120000AF04BFB20001A490AF076
:1089200037FB01230293039CDFE7002A01D0954225
:10893000F9D1002901D0BB42F5D120000AF038FB63
:10894000200011490AF024FBEDE7104BEB18012B36
:108950000FD910233A002900009308A80C4B0AF005
:10896000D2FB336830009B6808A9984708A80AF032
:10897000E4FB15B0F0BDC046682400209C24002014
:10898000FE030000FF0300008C24002002FCFFFF18
:10899000C988010010B572B60E4B1C68002C0ED0B1
:1089A00020000AF005FB0023E3640B4BE36372B67F
:1089B0000A4B1A681C60A26562B6200010BD62B640
:1089C0005C200DF056FD5C220021040009F020FA25
:1089D000E9E7C046942400200040002090240020B5
:1089E000074B10B51C68E36CDB0706D5FFF7D2FF19
:1089F000044B1860002800D00400200010BDC046C1
:108A0000A024002070240020F7B51E4C01232278FA
:108A100016001E401A4233D11B4D2860FFF7BAFFE3
:108A20001A4B1B4918600AF0B3FAFFF7B3FF194B52
:108A30001860194B4363194B8363286800280FD0D3
:108A4000C023174F3200174900933B000AF07AFA0F
:108A5000C023009332003B00134928680AF072FAE1
:108A60000C200DF006FD0023838083710F4B036003
:108A70000F4B836000F044FB0123227813432370E3
:108A8000F7BDC0469029002068240020A0240020C3
:108A90008C24002098240020FC3F00201530020088
:108AA000C9880100FF030000FE030000E06402002B
:108AB00091880100024B1878012318407047C04686
:108AC00090290020F7B5134F04003B680E00002BDF
:108AD0001ED0114B1B78DB071AD5FFF781FF05006D
:108AE0003304234383640AF063FA28000B490AF035
:108AF0004FFA0B4B0025E318012B07D9C023009335
:108B000032002100074B38680AF01CFA2800FEBD2D
:108B1000054DFBE768240020902900209C240020BC
:108B200002FCFFFFC988010016FCFFFFF7B5060035
:108B30000D0017000193002802D100242000FEBD83
:108B40000029FAD0FFF726FF041EF6D0074B019A42
:108B500043630660064B45608760002A00D0054BE2
:108B600020000549A3630AF013FAE7E7FC3F002061
:108B7000EF2F0200FD2F02008C24002070B5074B60
:108B80000E0011001A7805000123100018401A4247
:108B900003D032002800FFF7C9FF70BD90290020E4
:108BA000F8B50500EFF30884C36B006C1C1B6B6CFD
:108BB0001B1A9C420FD91F23074E203437689C4351
:108BC000002801D000F0D6F9200000F09FF92864B9
:108BD000001968643760F8BDA0240020024B1868B3
:108BE000434258417047C0468C24002003000022B5
:108BF00010B5044994006058002801D00132F9E70B
:108C0000635010BD74240020002310B5044A99005D
:108C10008C58844201D00133F9E70020885010BD00
:108C20007424002010B50024084BA200D05800285E
:108C300002D003685B6898470134062CF4D1044BDA
:108C40001B68002B00D120BF10BDC046742400203B
:108C50008C2400200122F8B52C4B1B7813421CD029
:108C60002B4D2C68E36C134218D002273B43E3647E
:108C7000284B1E680423F26C30001343F364636BCB
:108C8000F363FFF78DFF3000716C03F07AFF286803
:108C9000C36C3B4201D003F0AEFFF8BD1E4F1F4E28
:108CA0003A683068002A0AD128601B0712D52C6068
:108CB000FFF7B8FF3B68002BFAD02B600AE0216D6C
:108CC000B94219D1616D002900D1110029602A68CB
:108CD0008242EAD029688C42DFD0336899420DD1B4
:108CE0000F4B4B630F4B8B632000FFF759FF296835
:108CF00020004B6C626C06E02A60E8E79C42F3D1EE
:108D0000002210004B6C03F0FBFEC6E79029002008
:108D1000A0240020702400208C240020982400200F
:108D2000FC3F00201530020070B50C4B04001B788E
:108D3000DB0702D40DF075FA70BDFFF751FE050098
:108D400000F0C6F92418AC6428000AF031F92800B4
:108D500003490AF01DF9FFF77DFFEDE79029002098
:108D60006C240020F8B51B4B1B78DB0727D50024AB
:108D7000194E30680AF01CF9184D2B68002B02D0F0
:108D80005B6D0134FAE7032C0ADD2F68013C7B6D33
:108D9000386C2B6000F0EEF8380000F0EBF8F2E7EA
:108DA000290030680AF0F4F872B60D4932680B6891
:108DB000934206D19B6D0B6062B6FFF74BFFF8BD87
:108DC0000B00002BF8D0996D8A42F9D1926D9A650B
:108DD000F2E7C04690290020A0240020942400201F
:108DE0009024002010B5034B1B78DB0701D5FFF75B
:108DF000B9FF10BD90290020F7B505000C00002830
:108E000033D001261B4B1B78334230D01A4F072337
:108E10003868C26C1100194000911A4207D0210035
:108E20002800164AFFF7AAFE00252800FEBD03F021
:108E3000CAFE3A680221D36C1800084001900B4228
:108E400003D001318B43D364EEE73343D364200076
:108E5000A8473A68019DD36C1900B143D1645B0700
:108E6000E3D52000FFF7BEFFDFE7054DDDE7054D49
:108E7000DBE7C04690290020A0240020E58D0100FA
:108E800017FCFFFF16FCFFFF020010B5014B12CBD1
:108E900012C210BDA4240020034B1A68034B1A60B1
:108EA0007E225A607047C04604200020A42400207F
:108EB000F0B5124E03003278022A1BD081421BD932
:108EC0000C1A072C18D90D00054303272800384039
:108ED0003D4211D172B6BA40094DA4085351AA18A7
:108EE00051608022120614431C60337801333370C2
:108EF00062B6F0BD0348FCE70348FAE79229002078
:108F0000AC24002013FCFFFF17FCFFFF70B5041E0C
:108F100023D0124D124E2B78002B0CD11149124840
:108F20003370FFF7C5FF114B984202D11E20FFF7A7
:108F3000D5FB01232B7000253378AB4209DD0C49AA
:108F4000EB002000C9180AF06FF8002805D10135A0
:108F5000F2E71420FFF7C2FB002070BD912900202A
:108F60009229002000380020502A002017FCFFFF23
:108F7000AC24002010B5002817D000220F4B197820
:108F80000F4B914215DD1C6884420FD25C6884420D
:108F90000CD9041F2368002B02DC1E20FFF79EFB68
:108FA000802322681B061343236010BD013208335F
:108FB000E7E71E20FFF792FBF7E7C0469229002063
:108FC000AC24002070B5051E14DD0B4E0B4C33682D
:108FD000002B02D020680CF0DBFFFA21206800246F
:108FE000074B89008361C462694335600CF0E1FF7F
:108FF000200070BD0348FCE7BC240020EC240020C6
:10900000AD90010017FCFFFFF8B5114F05003E6859
:10901000002E0AD130200DF02CFA040006F00AFED2
:109020000C4BA6612360E6623C600B4E3368002B5C
:1090300009D110200DF01DFA04000DF006F82000F3
:1090400034600CF0DCFF2800FFF7BCFFF8BDC04621
:10905000EC240020EC6C0200E8240020014B18688E
:109060007047C046BC24002070B50D4C2368002B0F
:1090700003D00C4B1B68002B02D10620FFF7C4FF66
:1090800020680CF0D3FF02000749C3170D684E6833
:109090005219734120680A604B600CF0CDFF70BD1F
:1090A000E8240020EC240020B020002010B5FFF7B9
:1090B000DBFF0024054BA200D058002802D0036833
:1090C0001B68984701340A2CF4D110BDC02400203D
:1090D00010B5FFF7C9FFFA22034B920018685968D0
:1090E000002307F0E3FC10BDB020002010B5FFF70F
:1090F000BBFF024B1868596810BDC046B020002065
:109100000B4B10B51B680400002B03D0094B1B68E8
:10911000002B02D10620FFF777FF0023064A9900B3
:109120008858002801D00133F9E78C5010BDC046A3
:10913000E8240020EC240020C0240020002310B5E7
:10914000044A99008C58844201D00133F9E7002089
:10915000885010BDC024002010B50400002902D0A2
:109160000B78002B03D1034B2360200010BD0AF0C5
:1091700037F8FAE7F0640200F8B504000E001500B5
:1091800000290AD00B78002B07D0002A05D0080050
:1091900097B209F0A7F8874203D90B4B2360200050
:1091A000F8BD681DFFF7B2FE20600AF0BDF9206827
:1091B0002A0047803100043008F082FD23685D19E1
:1091C00000232B71EBE7C046F0640200014B036003
:1091D0007047C046F064020010B50548054C206099
:1091E0000AF0A5F92000044A04490DF037F910BD32
:1091F000F0640200F024002000200020D33102009F
:10920000084B73B51D680400002D0AD001002E68BC
:1092100008220831684608F053FD0CCC280031685C
:10922000884773BDF4240020014B03607047C0469B
:10923000F864020010B50400081E03D1034B23603C
:10924000200010BD21600AF072F9F9E7F86402000D
:1092500030B500684488A1420CDA8588AA4209DA50
:10926000002907DB002A05DB624340188018837160
:10927000002030BD0048FCE717FCFFFFF0B50700F9
:109280000E001D0085B0002921DD002A1FDD002B06
:109290001DD00468638803938B4200DD0391A3888B
:1092A0000293934200DD0292002306340193019B56
:1092B000029A93420ED029002000039A08F000FD84
:1092C0003B68AD195B88E418019B0133EEE7024867
:1092D00005B0F0BD0020FBE717FCFFFFF8B5040068
:1092E0000D0016001F00002901DB002A02DA0D4BD9
:1092F0002360F8BD100048430630FFF707FE2060EA
:109300000AF012F923685D809E80002F06D03B0092
:10931000320029002000FFF7B1FFEAE720000AF041
:1093200038F8E6E7F8640200F7B507000D1E03D130
:10933000244B03603800FEBD0024080026002100F5
:1093400001940378002B1AD03022524294469C4458
:109350006246092A11D90A2B0AD1019B3619013319
:109360000193B14200DA3100002426000130E8E721
:10937000002CFBD000240136F8E70124F6E7019A1F
:10938000380012B209B2FFF7A9FF012149420E00CD
:109390000A203B689A1D2C78002CCBD02300303B50
:1093A000092B08D8CB43DB170B4043431B19303B39
:1093B00019000135EFE70029FBDB117031000132A4
:1093C000F7E7C046F8640200F0B5040087B004A8CF
:1093D0000E001D000192FFF757FD236801995A887E
:1093E000914233DA9B889D4230DA1F2E2ED9059B9D
:1093F00000939E422ADC052300217343049AA03B7C
:10940000D3180393039B6E185B5C02930023019AAD
:10941000D718226850880090B8420EDD9088B0427C
:109420000BDD0098D2197043121810201841029FCA
:109430003840471EB841404290710133052BE6D1B8
:1094400001310529DED1002007B0F0BD0048FBE75F
:1094500017FCFFFFF7B5036806009F1D5B880D0032
:109460005A1A0192002919DD0024994203DB09F000
:1094700090FF002013E033689B889C42F9DA791949
:109480003800019A08F01CFC019B2900F81809F02B
:1094900063FF336801345B88FF18ECE70048FEBDCA
:1094A00017FCFFFF10B50548054C20600AF03FF897
:1094B0002000044A04490CF0D1FF10BDF8640200FA
:1094C000F8240020002000204B33020010B5054C8A
:1094D000012120000AF01FF82000034A03490CF084
:1094E000BDFF10BDFC24002000200020D33402006A
:1094F000074A030010B50120934208D0834202D0EE
:109500000020DB0703D41E20FFF7E8F8002010BD81
:10951000FFFF00000048704716FCFFFF10B5322027
:10952000FFF7DCF8004810BD16FCFFFF8280142214
:10953000002310B541620F4C0100083404600E2472
:109540000281123A837182720363838636310A780C
:10955000C360A243036143618361C36103620A7014
:10956000021DD38701224287034AC26302004032B0
:10957000137010BD1865020001000100F0B5564ED1
:109580000500376897B0002F00D090E006AC0B23A1
:109590001C228221200001F0F9F90B231D228321D6
:1095A0000AA801F0F3F90B231B2284210EA801F075
:1095B000EDF908200CF05DFF01223B001100049042
:1095C0000BF09DFB3A2128000BF0B8F800281CD0C6
:1095D000A38812AFBB80A379A268BB713F4B5C200C
:1095E00012930E23E3561492A289BB73BA810CF036
:1095F00040FF05230193353300933A002900049B73
:10960000040001F0B5FF346051E0322128000BF076
:10961000C3F800281BD0A38812AFBB80A379A2682F
:10962000BB712E4B5C2012930E23E3561492A28939
:10963000BB73BA810CF01DFF052301932D330093FA
:109640003A002900049B040002F036F9DBE73C21D4
:1096500028000BF05CF8002834D0362202AB9B8E39
:1096600012AFBB8002AB9B181B780832BB711B4B3F
:10967000A420129302AB9B18109A1B7814920592A7
:1096800002AA928F5BB2BA81BB730CF0F2FE062382
:1096900004000293013B0193373300933A00049B8B
:1096A000290001F085FE0E4B346044341C600C4BE5
:1096B000094C1868002802D021680AF0A4F8206834
:1096C00017B0F0BD44200CF0D4FE0522049904002C
:1096D000FFF72CFF97E7C046002500200865020031
:1096E00004250020F0B56349C56885B08D4258DA7D
:1096F000030036331C7802222300134014425BD14E
:10970000026901928A4265DA020036321278520703
:109710006AD4426902920200029C40328C4270DAA2
:10972000010036310978090775D4002B7ED11378F2
:109730009C46002B16D00100061DF38F36310133F5
:109740009BB2F3870391097801270C003C40394212
:1097500000D188E01D2B05D9039BB9431970002364
:10976000F387137009F02FFF434A0723904277D9FC
:109770004249043B8D4273DBC8220133920095427B
:109780006EDC0198023B88426ADB013B904267DC59
:1097900002980433884263DB0023904260DD063385
:1097A0005EE0C822002352009542A9DD0300363353
:1097B0001A7800239207A3D4012306001F0036362F
:1097C00032785408A7433C0002279C40BA43224306
:1097D000327095E7C822019C5200944299DD020044
:1097E00036321278520794D4012306001C00363614
:1097F00032789708BC43A7000424A2433A4332704E
:1098000087E7C821029C49008C428EDD0100363179
:109810000978090789D40100012636310B78DF0861
:10982000BE430827F600BB4333430B701378032B6A
:1098300000D97CE70133DBB21370012B03D1002187
:10984000031DD98773E7042B00D070E7020036327E
:109850001178033B0B43137000230430C3870B3391
:10986000180005B0F0BD092B00D87BE76346F487EC
:10987000013B76E770FEFFFFFF700200E0FCFFFF98
:10988000F0B5C369C1681A68451D0400EB7F89B053
:10989000114225D0002B57D10123A2791A4237D08B
:1098A000002602226846A188A67109F02BFDA31D9F
:1098B000DD7F012D2CD1FFF70BFC3300226A801ACB
:1098C00099410F000600A1889F4203D1FA239B0013
:1098D0009E423BD30123042204A809F013FD17E0A4
:1098E0000B2B01D80133EB77EB7F082B0DD901222D
:1098F000A37913420CD11343A188A37104A81300C8
:1099000009F000FDFFF7E4FB2062EB7F012BC3D9D8
:109910000322A3791340012B14D1FFF7D9FB0023B5
:10992000226A801A9941994202D10A4B984209D978
:109930000223A279A1881343A3710522012304A85D
:1099400009F0E0FC09B0F0BD013BCCE72B0003229D
:10995000C2E7C046DB05000010B50400034B083326
:109960000360FFF7EBFB200010BDC0464C65020012
:10997000F0B5060000250F00040085B002930AAB85
:109980001B78083603930F4B2900083303600192BC
:10999000858085711822300008F03AFA39003000CD
:1099A000039A0CF0A7FB019B029AA380A31DE77109
:1099B000DA77631D25622000DD77FFF7A1FB200029
:1099C00005B0F0BD4C6502000048704716FCFFFF73
:1099D00010B53320FEF782FE004810BD16FCFFFFD5
:1099E000002310B50400838083710D482164083082
:1099F00020608020C000A061E06120621100200092
:109A0000E360236163616362A362E3622363636370
:109A1000A363E363636409F0CEFE200010BDC0467B
:109A200064650200F0B5544E0500376897B0002F0A
:109A30003DD10B231C22822106A80AAC00F0A6FF10
:109A40000B231D228321200000F0A0FF0B231B22EB
:109A500084210EA800F09AFF08200CF00AFD0122D4
:109A60003B00110004900BF04AF91D2128000AF078
:109A70007CFE002824D0A38812AFBB80A379A26803
:109A8000BB713E4B602012930E23E3561492A289C1
:109A9000BB73BA810CF0EDFC0623019317330093DE
:109AA0003A002900049B040001F036FE3460344B78
:109AB000314A1B681068002B00D0436417B0F0BD1A
:109AC0003C2128000AF07FFE00281BD0A38812AF9B
:109AD000BB80A379A268BB71284B602012930E2330
:109AE000E3561492A289BB73BA810CF0C2FC062320
:109AF0000193363300933A002900049B040001F0DF
:109B00007DFFD3E73C2128000AF001FE002829D080
:109B1000362202AB9B8E12AFBB8002AB9B181B7828
:109B20000832BB71154BA420129302AB9B18109AFC
:109B30001B781492059202AA928F5BB2BA81BB7312
:109B40000CF097FC062304000293013B019337338A
:109B500000933A00049B290001F02AFC084B1C608A
:109B60004434A3E748200CF084FC06220499040046
:109B7000FFF736FF9AE7C04604250020086502007B
:109B800000250020F0B587B001930EAB1B880600BE
:109B900003930D9B0D000093019B0C9F0292002BE1
:109BA0003DD0002F02D1009BDB0738D530200CF0D0
:109BB00060FC0400103009F09BFB2000243009F009
:109BC0002FFA029B1820258063800CF052FC0500C0
:109BD000009B08220593019B002103600C30049731
:109BE00008F016F9082204A9281D08F069F80D4BA1
:109BF00002226B6100230399E3602362E36233680E
:109C00000A43300021005B68A560A28098470028C5
:109C100005D0200009F091FA20000CF026FC07B0D6
:109C2000F0BDC0464B38020070B58CB08360109B0D
:109C300001604260C3600400184918000AF0F3FC98
:109C4000051E14D001001C22103105A808F038F8B8
:109C50006A4608AB43CB43C21B6813602068059972
:109C6000069A079B09F0B9FD28000CF0FEFB0C4B8F
:109C7000186800280ED00B4A05AB05920022069208
:109C8000C03202926A4622CB22C22300032206215E
:109C9000FFF778FF20000CB070BDC04634720200A0
:109CA000F4240020A99C010082B0F0B50400EDB0BE
:109CB0006420739372920CF0B4FA052210A811007C
:109CC00009F070FB954911A8FFF72EFB192500221A
:109CD00021AB013D1A605A609A600C33002DF8D117
:109CE0001522290014A8139508F092F8A0680AF02C
:109CF0001AF9FF210A90A06800F01EFC884FA068A6
:109D000000F0BEFA049508950995854B9F4203D053
:109D1000844B9F4200DBF7E0A0680AF006F9A568D3
:109D200081491AA8FFF718FA78221AA9280000F02A
:109D300049FB1AA809F04DFA0023794F0493032632
:109D4000099B606801333340099309F0D4FC050096
:109D5000606809F0D7FC0022744B05929D420FDB2E
:109D6000013205922A00C8320ADBAA22042192009D
:109D70000591954204DC0596C82D01DC022205926E
:109D800000220692984210DB012306930300C83399
:109D90000BDBAA2304329B000692984205DC0323C6
:109DA0000693C82801DC013B069310A809F0F1FADC
:109DB0005F4B00251E00079313ABEB5C012B05D115
:109DC00072783178FE3310A8FFF742FA0135023677
:109DD000192DF1D16B4618229A5E6B4610A81421FA
:109DE000595E099BFFF734FA002F02DB049B0F2B0F
:109DF00007D90023A0681A007430009310A909F055
:109E0000DEFA13AE079B059A1B78934221D1079B7C
:109E1000069A5B7893421CD13378012B19D00C231E
:109E2000089A0CAD53432800002221680B9309F0D7
:109E3000ECFC21AA94460B9B634407CD07C3012386
:109E40003370089B0133DBB20893049B0133DBB210
:109E50000493079B374A0233079301369342D1D1CB
:109E600064200CF0DEF9089B643F3FB2182B00D849
:109E70004BE71A0021A91AA809F0D6FE6A461DABC5
:109E800023CB23C21B6813601A991B9A1C9B206862
:109E900009F0A3FCE568002D0CD0274912A8FFF7B4
:109EA0005BF91C2328001AAA12A90AF0F1FB12A8D8
:109EB00009F08FF9A0680AF038F811A912A8A5686E
:109EC00009F050FA00221D4B009212A901932800BC
:109ED000130000F019FA12A809F037FAFA208000EE
:109EE0000CF09FF9A0680AF020F80A99A06800F029
:109EF00023FB11A809F029FA10A809F026FA6DB081
:109F0000F0BC08BC02B01847002F03D0049B0F2BF5
:109F100000D014E7A06800F0B3F910E73F72020028
:109F20008C3C0000D18AFFFF8472020058FDFFFFC5
:109F300099720200CB72020034720200DC0500004C
:109F4000F0B5040085B0637A9C46002B04D1200054
:109F500009F088FE05B0F0BDA37A266F01931023A7
:109F6000019AF35600259B1801229A402900F368B4
:109F700003920293029BAB4231DDB068019B6843C0
:109F8000C01873694000E77A1A181B5C5078E279B0
:109F9000012F14D1571E3F1A18003B004243606F37
:109FA00052008218D2189379634500DD6346627BC4
:109FB0001A4202D00123AB4019430135DAE7022FE0
:109FC00007D0032FEAD1277A013FFF1A0300380098
:109FD000E4E7571EFB1A277A013F381ADEE7112300
:109FE000C943F356606C994023691940039B194398
:109FF0000CF0D7F9A27B072AACD8637B0C495B0035
:10A000006373531CDBB290004158A373022A03D838
:10A0100008000CF0FBF896E7064B200023630023B2
:10A020006363054BE462236414300BF0C2FF91E7D5
:10A0300090650200419F01004F3C020070B5040092
:10A04000104B250008330360FFF778F820007430C8
:10A0500009F07BF92000603009F077F920005830D2
:10A0600009F0B7F82000503009F0B3F8064B14356A
:10A07000280063610BF08CFF280005F0F1FD200043
:10A0800070BDC046B0650200EC6C0200F8B500255A
:10A090000400324B8580083303608571143016004C
:10A0A0000F0005F0C7FD20002D4BE56263612564BC
:10A0B0005030FFF78BF820005830FFF787F820006A
:10A0C0006030FFF7B1F820000423F25E33682667A2
:10A0D000590009B2743009F065F93368226FE371F1
:10A0E00073680126237210236581A7802561D356EA
:10A0F00091685918994204DD3000984001330543B6
:10A10000F8E711230120D356D1685918994206DD8A
:10A1100002009A402669013332432261F6E7142097
:10A120000CF0A7F9226900212A430123060006F05A
:10A130000DF8FF23220063720133A381002348320C
:10A140006664A37320001370A366FEF7D9FF012392
:10A15000A27920001343A371F8BDC046B065020088
:10A16000006D0200F0B5437A040085B0002B04D1E5
:10A17000200009F077FD05B0F0BD837A066F0193EA
:10A180001023019AF35600259B18012294469A4009
:10A190002900F36803920293029BAB422DDDB06865
:10A1A000019B6843C01873694000E77A1A181B5C6A
:10A1B0005078E279012F10D1571E3F1A18003B004A
:10A1C0004243606F52008218D2189379002B02D05C
:10A1D0006346AB4019430135DEE7022F07D0032F5A
:10A1E000EED1277A013FFF1A03003800E8E7571E37
:10A1F000FB1A277A013F381AE2E71123C943F356C5
:10A20000606C994023691940039B19430CF0C9F80D
:10A21000667AB31EDBB2FC2B14D8FEF71FFF0C4B83
:10A220000500236300230B4863630B4BFF2170433E
:10A23000E462236406F014FB29004143200014303B
:10A240000BF0B7FE637A012B00D994E790E7C04684
:10A25000653C0200B60300004F3C02001FB501231D
:10A2600081881A00684609F04DF8012368461A00F3
:10A27000024909F047F805B000BDC046FE030000E2
:10A280001FB5030048331A780400002A0DD00022BD
:10A290001A70012381881A00684609F033F80123F7
:10A2A00068461A00034909F02DF82000743009F0BF
:10A2B00070F81FBDFF03000010B5040023004833F1
:10A2C0001A78002A07D01B78012B04D001210248FC
:10A2D00008F084FEF2E710BDFF03000010B5012175
:10A2E0000400072008F07AFE064B984208D1483453
:10A2F0002378002B04D02378012B01D020BFF7E76F
:10A3000010BDC04616FCFFFF73B5079C0500002C6E
:10A310001CDB060048363078002802D0307801284F
:10A3200016D106981BB2C0B20090280012B2743049
:10A3300009F045F8002C07D02B004A331C8000247C
:10A3400007234C352C803370200076BD014CFBE791
:10A35000014CF9E717FCFFFF12FCFFFFF0B587B0D7
:10A360000D9C05000E0017000393002C21DBFFF766
:10A37000A3FF2B0048331B78DAB20292002B1AD1CC
:10A38000310005A808F0EEFF0C9B3A00009328006E
:10A39000039B019405A9FFF7B7FF05A808F0D5FFB7
:10A3A000002C03D02800FFF799FF029C200007B083
:10A3B000F0BD024CFAE7024CF8E7C04617FCFFFF7D
:10A3C00011FCFFFFF8B50400171E1DDD060048361E
:10A3D0003378002B02D03378012B17D12200E37998
:10A3E0005632013B137023000025200054331D809A
:10A3F000503008F04BFF23004A331F80022328000F
:10A400004C3425803370F8BD0148FCE70148FAE779
:10A4100017FCFFFF12FCFFFFF7B504000F00161E2C
:10A4200018DDFFF749FF230048331B78DDB2002B0E
:10A4300012D1390001A808F021FF320001A9200043
:10A44000FFF7C0FF01A808F0C4FE2000FFF746FF99
:10A450002800FEBD0148FCE70148FAE717FCFFFFB2
:10A4600011FCFFFFF8B50400171E2DDD060048366D
:10A470003278002A02D03278012A27D15D42069B29
:10A48000FF331FD16B1D22001BB2643213802300E7
:10A49000200066331D70603008F06CFF230000223E
:10A4A0006C331A70954200D03D0023004A331D8062
:10A4B000079B00205A1E9341013F4C3405332780EF
:10A4C0003370F8BD069BDEE70148FAE70148F8E77C
:10A4D00017FCFFFF12FCFFFFF0B504000F00160091
:10A4E0001D0087B0002A1FDDFFF7E6FE230048337A
:10A4F0001B78DAB20392002B18D1390005A808F0B6
:10A5000031FF0D9B320001930C9B05A900932000A5
:10A510002B00FFF7A7FF05A808F017FF2000FFF7A3
:10A52000DDFE039807B0F0BD0148FBE70148F9E7FD
:10A5300017FCFFFF11FCFFFFFF2902D8417200202A
:10A5400070470148FCE7C04617FCFFFF13B5040045
:10A5500004A80078009020000BF08FFC002801D1A7
:10A56000207516BD0048FCE70EFCFFFF13B5040084
:10A5700004A80078009020000BF067FC002801D1AF
:10A58000207516BD0048FCE70EFCFFFF7FB50D00EF
:10A5900011000F226A4404001E1E117015D0089B82
:10A5A000002B12DD012329000093FFF7DFFF0028B5
:10A5B00008D10090320029002000089BFFF7C6FF59
:10A5C000002800D0024804B070BD0248FBE7C04636
:10A5D0000EFCFFFF17FCFFFFF7B506000D1E3ED077
:10A5E0000023022704690193002C34D0AA88A38891
:10A5F00053403B422DD13A4222D1A368AA689342EC
:10A6000027D12B88002B02D022889A4221D16B8837
:10A61000002B02D062889A421BD1EB68E268934219
:10A6200001D0002B15D17368002B01D02000984772
:10A63000A2880C4B1343A380019B0133019308E0D4
:10A64000A968A0680AF041FB0028DAD1AB883B4238
:10A65000D3D0E46AC8E7019B2000002B00DC02484D
:10A66000FEBDC0460080FFFF17FCFFFFF0B50600EF
:10A670000D0085B000295DD001270469002C27D08A
:10A680000221AA8800230A4202D0A3885B083B402B
:10A69000226829688A4215D1A068A968002B0FD0CA
:10A6A0000AF013FB00280DD0EB68E268934209D151
:10A6B0000421625EA388002A06DB1F4805B0F0BDB6
:10A6C0008842F1D0E46AD9E75B045B0CA380F4E72D
:10A6D00030692A880100031E07D1356101236846CD
:10A6E000164908F00FFE0020E8E71C88944206D2C5
:10A6F000DC6A1900002C0DD02300F6E723001C882B
:10A70000944207D15F886C88A74203D8DC6A19009D
:10A71000002CF3D1884209D10B889A4204D305D189
:10A7200048886B88984201D9E962D6E7CB6AEB6228
:10A73000CD62D3E70248C1E716FCFFFFFD0300002E
:10A7400017FCFFFF064B10B51A00040008322C332B
:10A75000026083600830FEF757FA200010BDC04643
:10A76000C865020008B4024B9C46083808BC604724
:10A7700045A7010008B4024B9C46083808BC604756
:10A78000A14002000C4A002311002C32083110B500
:10A790004360838183738260036143618361838348
:10A7A000016004000830FEF721FA044B1A68002A01
:10A7B00000D11C60200010BDC8650200F4240020F8
:10A7C00082B0F7B50125402609930CAB1B780469CC
:10A7D00008920193002C38D008AA238812889A4244
:10A7E00001D0002B29D108AA638852889A4201D04F
:10A7F000002B22D1FEF75EF90123002806D0C022EB
:10A80000A3881340C03B5A425341DBB2019A9342A2
:10A8100019D10422A35EA788002B14DB102208A9FB
:10A82000A01807F04DFA374209D1FEF743F9002886
:10A8300005D021000748FEF7DFFAE46ACAE72000E6
:10A8400009F037FCF9E70025F7E72800FEBC08BC53
:10A8500002B01847B340020008B4024B9C460838C7
:10A8600008BC60474F42020010B5024808F040FDA6
:10A8700010BDC046B8200020F0B587B001930EABE4
:10A880001B88060003930D9B0D000093019B0C9FFA
:10A890000292002B3DD0002F02D1009BDB0738D560
:10A8A00030200BF0E6FD0400103008F021FD200000
:10A8B000243008F0B5FB029B1820258063800BF044
:10A8C000D8FD0500009B08220593019B0021036031
:10A8D0000C30049707F09CFA082204A9281D07F001
:10A8E000EFF90D4B02226B6100230399E3602362B1
:10A8F000E36233680A43300021005B68A560A280F0
:10A900009847002805D0200008F017FC20000BF025
:10A91000ACFD07B0F0BDC0469D420200F0B5160088
:10A9200000258380164A174B04008571026001815F
:10A930004681057318688C4689B0A8421DD0124A1A
:10A9400005950492C02202926A4604AB82CB82C271
:10A9500023002A006146FFF78FFFC022094B0A49F6
:10A96000186802926A46069106AB079582CB82C2AE
:10A9700023002A003100FFF77FFF200009B0F0BD5F
:10A980000C660200F4240020C743020030B5002406
:10A9900003730123034D84710560818082734373C7
:10A9A000846030BD0865020070B583790400DB0760
:10A9B00004D58068002801D00BF057FDA3799B07D0
:10A9C00004D5A068002801D00BF04FFDA3795B07E8
:10A9D00009D5A0230021154AA068DB00D150884288
:10A9E00001D00BF042FDA3791B0708D5A568002D07
:10A9F00005D028000AF0D9F928000BF036FDA3791C
:10AA0000DB0605D5A068002802D00368DB689847FC
:10AA10006023A2791A4205D0A068002802D00368FA
:10AA20005B6898470023A360A37170BD007000406D
:10AA3000F7B50126037B040033422CD082796123D1
:10AA40001100194001911A4216D1FFF7ADFF1820ED
:10AA50000BF00FFD0E230500E356677B18220199CA
:10AA6000009307F0D5F93A00280000990BF042FB5B
:10AA7000A379A5603343A3716023A279A0681A4229
:10AA800002D00BF01BFAFEBD436940681B681840FA
:10AA9000431E9841F7E70148F5E7C04616FCFFFF63
:10AAA000012210B583794173134204D080680BF002
:10AAB000BFFB002010BD6022134203D080680BF062
:10AAC00004FAF6E70048F5E716FCFFFF70B504004E
:10AAD00000250C4B0E000833858085710360210032
:10AAE000183009F021FD20002100203009F03FFD41
:10AAF000054B2000A680E5802572E5602561656133
:10AB00001C6070BD1C660200082500208379DB07ED
:10AB100002D5C160002070470048FCE716FCFFFF2B
:10AB20008379DB0701D5C06870470148FCE7C04660
:10AB300016FCFFFF70B545690400002D22D0037A92
:10AB4000032B21D8FFF7ECFFE86230200BF091FCDB
:10AB500030220021050007F05BF9002263699A6248
:10AB60002369934207D1636923610020237A6561D9
:10AB70000133237270BD1A009B6A002BFBD16369FD
:10AB80009362F2E70148F5E70148F3E717FCFFFF9E
:10AB900013FCFFFF144B70B55A68144C002A03D005
:10ABA00000225A600132A2601A69002A17D00021DF
:10ABB00019618023DB000E4DE3582868012B0FD16B
:10ABC000A923DB00E1584942FFF7A0FF2868FFF7FF
:10ABD000B1FF2B685A69074BE2500123A36070BD97
:10ABE000FFF794FFF9E7C046FC100040001000405A
:10ABF000082500200405000003000069002809D092
:10AC00000221054AD167826A1A611A7A013A1A72D8
:10AC1000024B19607047C04604E100E000E100E02B
:10AC200010B5002903DB024B19600BF093F910BD3E
:10AC30000C25002070B504001D0004AB1E7804F044
:10AC4000B5FF20000E4B40302360FEF7BFFA230013
:10AC5000220001354C331D700023E12158320136AA
:10AC600016700A3AA3646365138053809381D3817D
:10AC7000013B200063644902FFF7D2FF200070BD52
:10AC8000B8640200F7B580277F053E697C69082219
:10AC9000113C744305002100684607F011F8104B81
:10ACA000009A9A4219D000930023019379692800F1
:10ACB0001339714309F072FC019A2800009909F0D8
:10ACC00085FC2100280009F069FC7969220013390C
:10ACD00028007143B30809F06BFC0198FEBDC04623
:10ACE000FECA0000F0B50D00ABB000210D920700C8
:10ACF000302212A81E0007F08BF8280007F0F2FAA5
:10AD0000431C0C93102B00D9B8E0202E00D9B5E0DD
:10AD10002900380009F087FC0B90002854D1290045
:10AD20000C9A12A806F0CCFF32000D9916A806F076
:10AD3000C7FF80235B051A695D690B92113D6A4369
:10AD400038005E690D92FFF79DFF0D9B302208339E
:10AD5000002104001EA80F9307F05AF831000B9B46
:10AD600013395943380009F019FC00230F9E0C9346
:10AD70000E930C9BA34246DA310030221EA806F047
:10AD80009FFF12A91EA807F069FA00282BD13D49A0
:10AD9000380022001091119409F018FC6A460996B7
:10ADA00015AB23CB23C223CB23C223CB23C2380032
:10ADB000149B1299139A09F017FC01230E930C9B14
:10ADC000303601330C93D4E70B9832000D991030D4
:10ADD00006F052FF04000B980BF047FB002C9ED1AD
:10ADE00020002BB0F0BD6A46099621AB23CB23C2CD
:10ADF00023CB23C223CB23C238001E991F9A209B4A
:10AE000009F0F2FBDBE7E6433021F61726404E431C
:10AE10000F9B9E190E9B002B1CD10B9B981E05F0BF
:10AE200095FCA0422CD01749013438002200109123
:10AE3000119409F0CBFB6A46099615AB23CB23C2CC
:10AE400023CB23C223CB23C238001299139A149B1D
:10AE500009F0CAFB38000D9909F0A0FB80235B05BF
:10AE600059690C230B9A133963434A433800110084
:10AE700002330D9A09F09CFB0024B1E7024CAFE7C6
:10AE8000024CADE7FECA000017FCFFFF13FCFFFFFA
:10AE90008023F0B55B051A6995B002925A69059155
:10AEA0000299113A51435C69029B133C05005C43D3
:10AEB0000391FFF7E7FE061E3CD030220021083444
:10AEC00008A8039F06F0A4FF2100280009F066FBF4
:10AED0000023083701930493019BB34220DA390021
:10AEE000302208A806F0ECFE059908A807F0B6F98C
:10AEF00000280DD11B49721E28000691079209F007
:10AF000065FB01230493019B303701330193E3E791
:10AF100022000C233900280009F04AFB3034F2E704
:10AF2000049B002B08D10F49320028000691079698
:10AF300009F04CFB0C4812E02800039909F02EFBA5
:10AF400080235B0559690C23029A13394A437343E2
:10AF500011002800039A023309F02AFB002015B0E3
:10AF6000F0BDC046FECA00000CFCFFFF70B5040037
:10AF7000A280FA22002308000C49920008312160C7
:10AF8000A3710B496061E260A360638209F04BFB2F
:10AF9000051E09D00100200002221031123006F0F7
:10AFA0008FFE28000BF061FA200070BD34660200AD
:10AFB000CB72020030B502258379040087B02B42A2
:10AFC00004D1FDF713FEA3791D43A571200009F0FC
:10AFD00070FB00281CD06B46DD1C280009F060FBCC
:10AFE0002B78002B17D001A809F058FB0321019AF8
:10AFF000D3170B409B189B102382FEF769F8E36878
:10B00000A18818180123A0601A0002A808F07AF994
:10B01000002007B030BD0122064B1A60064A516875
:10B020000029FCD000215160044A126801920122DB
:10B030005A60DBE700C00040FCC0004008C500408B
:10B04000022802D10122014B1A7070479329002077
:10B0500070B5064D04002B78002B04D1044801F094
:10B0600087FF01232B70200070BDC046942900206B
:10B0700041B0010070B50C0007F043FF002810D06C
:10B080000023134DA40A2B70200009F030FB002888
:10B0900003D00A200BF0C5F8F6E72B78002BFCD084
:10B0A00070BD02210B4B0C4A99508021C9005858A1
:10B0B0000028FCD0A120C0001C5058580028FCD00B
:10B0C000002199508021C9005A58002AFCD0E7E796
:10B0D0009329002000E0014004050000F8B50D00B0
:10B0E00016001F0007F00DFF002811D00023184C98
:10B0F00023703A003100280009F0F7FA002803D045
:10B100000A200BF08EF8F4E72378002BFCD0F8BD72
:10B11000012380220F4C1049D2006350A358002B0A
:10B12000FCD08022D200002394469F4208DD980084
:10B1300032582A506246A0580028FBD00133F4E769
:10B14000002363506346E358002BFBD0DFE7C04683
:10B150009329002000E001400405000008B4024BE0
:10B160009C46443808BC6047F3460200FA21F8B513
:10B170000389C90004005943324809F0BBFDFA2194
:10B18000890005F0E3FA304FA17A2081380009F0F8
:10B19000B1FD23002600250022894C33A072A03681
:10B1A0001A808C3500232A223178286808F0CAFEDC
:10B1B000002844D11F235B223178286808F0C2FEA2
:10B1C00000283CD120235C223178286808F0BAFEA0
:10B1D000002834D101232C223178286808F0B2FEEF
:10B1E00000282CD101232D223178286808F0AAFEEE
:10B1F000002824D101232E223178286808F0A2FEED
:10B2000000281CD1A17A380009F06FFD0E22C3B2CC
:10B210003178286808F096FE002810D1FA21238999
:10B2200089005943074809F060FD012303432A229E
:10B2300031782868DBB208F085FE002800D003488A
:10B24000F8BDC046546602004C6602000EFCFFFFCB
:10B2500008B4024B9C46443808BC60476DB10100FD
:10B26000074B10B51A00040008323C3302604364F7
:10B27000443008F06EFA200008F097F9200010BD65
:10B28000B466020008B4024B9C46443808BC6047D0
:10B2900061B2010008B4024B9C46443808BC6047C8
:10B2A000FD460200F0B50425837904008BB02B42E3
:10B2B00004D1FDF79BFCA3791D43A57120009030BC
:10B2C000FFF7B6FB0026B0420FD12300A033197858
:10B2D00020000C2307AD00938C302B000122006866
:10B2E000FFF754F9061E03D02C4E30000BB0F0BD12
:10B2F0000A2304AA9B182A785A706A781A700022C6
:10B30000985EAA785A70EA781A700022995E0391C2
:10B310002A795A706A791A7000229F5EAA795A7047
:10B32000EA791A7000215A5E04922A7A5A706A7A6F
:10B330001A7000215A5E0592AA7A5A70EA7A1F257D
:10B340001A7000229B5EA27A03999C46514349429F
:10B350005043CB172B405B185B11A361C3172B40E5
:10B36000181864235743FA171540ED196A11226221
:10B37000059A5B425343A36764236146049A4011D4
:10B380005A434B43E267221DE0612000D36708F077
:10B3900085F92000443008F0E3F9A6E70EFCFFFF32
:10B3A00008B4024B9C46443808BC6047A5B2010073
:10B3B000F7B51E00040008AB1B881500019309AB0C
:10B3C0001A8800910AAB31001F88FEF7AFF8200001
:10B3D0003A0031004430FEF703FB134B20001A0003
:10B3E0003C336364230008322260009A8C331A6075
:10B3F000AB8890308380AB7983710C4BAA68036073
:10B400000E23EB5682602200A9899C32118083733F
:10B410002300019AA03303211A80FFF741FB20008B
:10B42000FFF7A4FE2000FEBDB4660200086502001E
:10B43000F8B5FA260189B60004007143254809F0E1
:10B4400059FC310005F082F9234FA17A20813800A0
:10B4500009F050FC2500A072583500232A222978D3
:10B46000606C08F06FFD002832D110232B22297860
:10B47000606C08F067FD00282AD101232D2229786D
:10B48000606C08F05FFD002822D101232E2229786C
:10B49000606C08F057FD00281AD1A17A380009F035
:10B4A00024FC0E22C3B22978606C08F04BFD002802
:10B4B0000ED121890748714309F017FC012303438A
:10B4C0002A222978606CDBB208F03CFD002800D00D
:10B4D0000248F8BD1C670200146702000EFCFFFF63
:10B4E00010B50400034B0833036008F05EF8200039
:10B4F00010BDC0467C6702007FB504258379040037
:10B500002B4204D1FDF772FBA3791D43A5712000E6
:10B510004830FFF78DFA0025A8420DD1230058339B
:10B520001978062302AE009301223300606CFFF706
:10B530002DF8051E03D00D4D280004B070BD00216C
:10B5400004200222A37A30567156B25659435A4308
:10B550004343DB002362D20023685242C90020002B
:10B560009B6AA261E1619847E6E7C0460EFCFFFFD7
:10B57000F8B504000F00190006AB1E8807AB1500D4
:10B580001A88FDF7D3FF0F4B67640833236023004D
:10B59000AA8848339A80AA799A710B4AA968A2644A
:10B5A0000E22AA5621652100A889543108809A7379
:10B5B0000023A371230058331E802000FFF738FFBB
:10B5C0002000F8BD7C6702000865020010B5040089
:10B5D000034B0833036008F0BCF8200010BDC046E0
:10B5E00010680200F0B507005C3700230400102249
:10B5F0003978806C87B008F0A5FC214D0300280045
:10B60000002B3BD10F2602ABF61801233978082214
:10B610000093A06C3300FEF7B9FFA8422DD003229F
:10B620003378134203D06420FDF77EFBEAE7FA2665
:10B630002189144DB6007143280009F05BFB3100ED
:10B6400005F084F82081A02311223978A06C08F03D
:10B6500079FC002811D1A36C218903937143280040
:10B660003F7809F042FB01231843C3B2102239008E
:10B67000039808F067FC002800D0014807B0F0BD2F
:10B680000EFCFFFFB067020070B508258379040047
:10B6900086B02B4204D1FDF7A9FAA3791D43A57109
:10B6A00020004C30FFF7C4F9051E0DD023005C3399
:10B6B0001978062304AE009301223300A06CFEF734
:10B6C00065FF051E03D0134D280006B070BD0E2384
:10B6D00032786B445A70727820001A700022995E9A
:10B6E00064224A43A263B2785A70F2781A70002238
:10B6F000995E642252425143616331795970717984
:10B70000197000215B5E5A432368E2631B6A984705
:10B71000DAE7C0460EFCFFFFF8B504000F00190081
:10B7200006AB1E8807AB15001A88FEF759F90D4BBA
:10B73000A764083323602300AA884C339A80AA792F
:10B740009A71094AA968E2640E22AA56616521002D
:10B75000A889583108801E8220009A73FFF742FFA3
:10B760002000F8BD1068020008650200F0B5FA2557
:10B770000189234FAD0085B004006943380009F00A
:10B78000B9FA290004F0E2FF1E4EA17A20813000B0
:10B7900009F0B0FA636CA072029323005833218938
:10B7A00001931B7869433800039309F09EFA07233D
:10B7B0000343202203990298DBB208F0C3FB002860
:10B7C0001AD1019B22221978606C102308F0BAFB71
:10B7D000002811D1019BA17A30001F78656C09F017
:10B7E00084FA80235B420343232239002800DBB222
:10B7F00008F0A8FB002800D0034805B0F0BDC04603
:10B80000446802003C6802000EFCFFFF10B5040013
:10B81000034B0833036007F0C8FE200010BDC0468C
:10B82000B4680200F0B504258379040085B02B428A
:10B8300004D1FDF7DBF9A3791D43A5712000483041
:10B84000FFF7F6F8051E0DD02300583319780623AC
:10B8500002AE0093A8223300606CFEF797FE051E2F
:10B8600003D0144D280005B0F0BD1F200023F25E68
:10B87000D31703409B180222B15E5B11CA17024026
:10B8800052180421775E3380F9170140A07A5211D3
:10B890004343C919728049114243B18041435B421D
:10B8A000E3612368524220009B6AA26121629847AB
:10B8B000D8E7C0460EFCFFFFF8B504000F001900E2
:10B8C00006AB1E8807AB15001A88FDF72FFE0F4B3D
:10B8D0006764083323602300AA8848339A80AA79D2
:10B8E0009A710B4AA968A2640E22AA56216521000A
:10B8F000A889543108809A730023A3712300583318
:10B900001E802000FFF732FF2000F8BDB46802005F
:10B9100008650200F7B5FA2504000189134EAD0051
:10B920006943300009F0E6F9290004F00FFF270011
:10B93000A36C208100935C373B7881B2694330006F
:10B94000019309F0D2F96022C3B20199009808F07E
:10B95000F9FA002807D1012362223978A06C08F097
:10B96000F1FA002800D00248FEBDC046E868020097
:10B970000EFCFFFF10B50400034B0833036007F013
:10B98000E8FE200010BDC046106902007FB5082502
:10B99000837904002B4204D1FDF728F9A3791D43D4
:10B9A000A57120004C30FFF743F8051E0DD0230091
:10B9B0005C331978062302AE0093E8223300A06CB2
:10B9C000FEF7E4FD051E03D00B4D280004B070BD4A
:10B9D0000223F25E96235B425A4362630021725E49
:10B9E00020005343A3630423F25E96235343E3638F
:10B9F00023681B6A9847E8E70EFCFFFFF8B50400D0
:10BA00000F00190006AB1E8807AB15001A88FDF75A
:10BA1000E7FF0D4BA764083323602300AA884C334B
:10BA20009A80AA799A71094AA968E2640E22AA56F4
:10BA300061652100A889583108801E8220009A7310
:10BA4000FFF768FF2000F8BD1069020008650200DA
:10BA500010B50400054B083303601C3007F0B9FB38
:10BA60002000183007F0B5FB200010BD3C69020033
:10BA7000FF23F0B52C4E8DB03370002304006946CF
:10BA80000088009303F088F9002802D16B469B7868
:10BA90003370264D2B68DB68002B07D100232088EC
:10BAA0001A00190008F09AFE0DB0F0BD3378032B90
:10BAB000F4D81F4901A8FDF74FFB2B6801A9DD68E9
:10BAC00004A807F0DBFB280004A908F0DBFD002731
:10BAD000050004A807F07DFBBD421ED029002022EE
:10BAE000103104A806F0ECF828000AF0BEFC31780A
:10BAF00004ABC9005918082202A806F0E1F8012396
:10BB00000822208802A908F069FE0137002804D124
:10BB10000C212088074A08F05FFE01A807F059FBB6
:10BB2000002FBBD0C0E7C046802000201C2500208D
:10BB3000D3720200FFFF0000F0B58379040091B0DA
:10BB40005B071BD5FDF7C4FA00232269801A9941CF
:10BB5000994203D1F533FF3398420FD3A0680028F0
:10BB600008D0354B1D8801F0FFF803681522290025
:10BB70001B6A98470422A3799343A371A3799B0777
:10BB800058D52E4E3368DB68002B4FD02C4F3B78B6
:10BB9000032B4BD8284B2B491B8804A80193FDF796
:10BBA000DBFA336804A9DD6808A807F067FB08A979
:10BBB000280008F067FD050008A807F00AFB082325
:10BBC00002AAD3800198073B063206A908F008FEB6
:10BBD000002D08D029002022103108A806F070F8A6
:10BBE00028000AF042FC3D7802ABDA88ED0008AB91
:10BBF0005D19280006A906F03FF8002813D0082296
:10BC0000280006A906F05CF8336804A9DD6805A8D9
:10BC100007F034FB2023280008AA05A908F038FD06
:10BC200005A807F0D6FA04A807F0D3FA0222A379F0
:10BC30009343A37111B0F0BD3C2900201C250020C6
:10BC400080200020D3720200F0B50400150085B0FA
:10BC500001930AAB1F880BAB1B78461C02930EABFB
:10BC60001B78102203930B7803704B8A01314382B7
:10BC7000300006F025F8656100250122019B27832D
:10BC80006383039BE5832377029B2000F377A31C48
:10BC9000DA770C9B0C26636223000D9A2833290067
:10BCA0001A705D7032009D702C3006F0B1F82000E3
:10BCB000064B3200A3632900E563403006F0A8F884
:10BCC0002000034B2565E36405B0F0BDF747020093
:10BCD000E947020070B50D0001F046F80400036862
:10BCE000002D09D15B699847FA2080006843074915
:10BCF00004F02CFDE08070BD9B6898478542F3D22C
:10BD0000236820009B6898470500EDE7710200005A
:10BD1000F0B507001500A1B002C706006B4918A8CE
:10BD20001C0008F060FE2B1E03D0280006F0DAFA93
:10BD300083B2012204920022039202920232019203
:10BD400000932A0018A93800FFF77EFF33006049EE
:10BD5000583318A8079308F046FE231E03D020008E
:10BD600006F0C0FA83B201220492002203920292EA
:10BD7000023201920093220018A90798FFF764FF8E
:10BD800033005449AC3318A8089308F02CFE269BC6
:10BD9000002B03D0180006F0A5FA83B2012204920A
:10BDA000002203920292023201920093269A18A96D
:10BDB0000898FFF749FF731CFF33474918A80993F8
:10BDC00008F011FE279B002B03D0180006F08AFA1A
:10BDD00083B2012204920022701C0392029202326A
:10BDE00001920093279A18A9FF30FFF72DFF330027
:10BDF0005533FF33394918A8099308F0F4FD289BFF
:10BE0000002B03D0180006F06DFA83B201220492D1
:10BE1000002203920292023201920093289A18A9FA
:10BE20000998FFF711FF3300A933FF332C4918A8F5
:10BE30000A9308F0D8FD299B002B03D0180006F0C8
:10BE400051FA83B201220492002218AC03920292AA
:10BE50000232019200932100299A0A98FFF7F4FE1A
:10BE6000204B1B780B93002B2DD1079B1E4913935E
:10BE7000089B0DA81493731CFF331593099B12970D
:10BE800016930A9B12AD179308F0ADFD1D214920B2
:10BE900006AB1B7F1022237006ABDB8D638206ABE3
:10BEA000C918C01805F00CFF062323750B9B1E95BF
:10BEB0003068A38300F068FF036821001B6898477F
:10BEC0000122084B1A70300021B0F0BD292A000071
:10BED000242A0000252A0000272A0000262A000024
:10BEE000282A0000952900200A18000070B50025B6
:10BEF00004000B4B8580083385710360C1601830E6
:10BF0000FDF764F920001C30FDF760F90123621C85
:10BF1000D377044A2000A56065611460A37170BDE9
:10BF20003C6902001C250020FA2130B585B00400D0
:10BF3000012302226846890007F0E4F9074D2868CA
:10BF4000002809D008F05BFD2188054B2A6819807C
:10BF5000022391790B43937105B030BD1C2500205D
:10BF60003C29002010B50C0007290FD8806800F08C
:10BF7000FBFE074B195703685B6C984743425841D7
:10BF8000044B40421840044BC01810BD0348FCE766
:10BF90005D740200EA03000016FCFFFF17FCFFFFC0
:10BFA000F0B5A04C0D00A544040007939AAB1B7894
:10BFB0009D4909A804930692FDF7CEF820002900B8
:10BFC0001C3007F063F9C020800000F0C7FF082094
:10BFD0000AF04FFA060000210EAF08F003FF15AD7E
:10BFE0000C220021A660380005F012FF2B0007CFBD
:10BFF00007C38E4B2900EB60002330002B6108F053
:10C00000DAFEA06800F0B0FE08220021059016A814
:10C0100005F0FEFE14200AF02CFA854B2A00159339
:10C020000300C2CAC2C3834B059EC3600023A0366F
:10C0300003617368002B00D0EEE07060A06800F030
:10C04000A3FE08220021060016A805F0E1FE142038
:10C050000AF00FFA784B1593030086CD86C3774B11
:10C06000C36000230361336B002B00D0D6E0306344
:10C07000A06800F079FE08220021059016A805F0BE
:10C08000C7FE14200AF0F5F96D4B15AD15932A0083
:10C090000300C2CAC2C36B4B059EC3600023943623
:10C0A00003617368002B00D0BAE07060012604AB16
:10C0B0001B7C04AA334308A93000137408F092FBD8
:10C0C000A06800F071FE03685F495B6A9847A0684A
:10C0D00000F06AFE03685D499B699847A06800F01C
:10C0E00063FE002302680093176804993200B84782
:10C0F000049B002B0AD0200008F08AFC032805DDF1
:10C10000A06800F051FE0368DB68984700260EAF78
:10C11000B819073608F0B8FB1C2EF8D1183E04AB4E
:10C12000A0685E770A9700F03FFE03680AA91B69C2
:10C130009847A06800F018FE03680AA95B6D98474D
:10C14000A06800F011FE03680021DB6D9847A0682D
:10C1500000F00AFE036802219B6D98470021200031
:10C16000FFF700FF18200AF084F9A16800F054FAE4
:10C17000374B384A1B68A1680393374B28001B686C
:10C1800000250293354B1B680193069B1B689B1986
:10C190000093334B12681B68FFF7BAFD30200AF09A
:10C1A00068F9079AA16800F0F9FAA06800F0DCFDD0
:10C1B00003680CA99B6A9847082304AA1384A06803
:10C1C000DB185384958400F0CFFD03680CA9DB6A6B
:10C1D00098473100A06808F0D9FB099A09219378A3
:10C1E000A068921908F0E5FBA06800F0BDFD3221BF
:10C1F0000571A068FFF76EFD04AB1B7FAB4204D056
:10C20000A06800F0B1FD08F035FB09A806F0E1FFD9
:10C2100095239B009D44F0BD03610EE7036126E773
:10C22000036142E7ACFDFFFFDF7202000548020038
:10C2300029BF01001348020071BA01002148020021
:10C240004F4802002F48020065C2010099C2010058
:10C25000182500201425002008200020102500208B
:10C260000C20002013B506226846FCF785FF094B19
:10C270001C68002C0AD0694601A806F0FFFF2000C8
:10C2800001A908F0DFFB01A806F0A3FF684606F04D
:10C29000A0FF13BD1C250020002373B501AE0C00C8
:10C2A00031000500019302F077FD002802D1B27839
:10C2B000064B1A70064B1868002806D0054B1D80E7
:10C2C00063425C41E1B208F0C5FB73BD80200020F1
:10C2D0001C2500203C29002030B5284CA9B06A223A
:10C2E0000D000DA8210005F0EBFC0DA903A8FCF73B
:10C2F000A1FF03A906A807F035F801230193013B2C
:10C30000FF3B00930533FF33642206A92800FEF7A4
:10C31000E3F806A807F019F8210019226A3106A8E7
:10C3200005F0CEFC05220024110006AB04A807F09E
:10C3300040F804A905A807F015F8230022002800FA
:10C340000194009405A9FEF709F805A806F0FDFF81
:10C3500021002800FEF7F0F805340520FCF7E4FC86
:10C36000FF2CF5D1FA208000FCF7DEFC04A806F0D3
:10C37000ECFF03A806F0E9FF29B030BDDA73020034
:10C38000F0B59C4B95B005921A68082304000F0085
:10C39000D16C06A80B43D3649749FCF7DDFE97499F
:10C3A00007A8FCF7D9FE220000250DAE30001C3294
:10C3B00006A906F07AFF310007AA08A806F075FF63
:10C3C000300006F006FF631CDD77A06800F0CCFCAF
:10C3D00003685B6998477019073508F055FA1C2DFA
:10C3E000F9D180230BADDB00AB80A0680B9600F089
:10C3F000BBFC036829005B6D9847A06800F0B4FCA3
:10C40000036800219B6D9847A06800F0ADFC030015
:10C41000002506000A331F2200211800039305F0AF
:10C42000F7FC039B3000DD7708F01BFA0621A068BB
:10C4300008F0ACFA089A09219378A068043208F051
:10C44000B8FAA06800F090FCC8210571A068FFF759
:10C4500041FCA06800F088FC0581A06800F084FC25
:10C4600008F008FA3800FDF70BFF2000FCF7BEFBD0
:10C4700039002000FFF730FF3900200008F0FDFAF6
:10C48000FF23049503936269012316001E401A429C
:10C4900032D05B4909A8FCF747FF09A90AA806F0B2
:10C4A00061FF00220AA91300019200923800FDF7F3
:10C4B00055FF0AA806F049FF049B002B47D1039BB8
:10C4C000043B0393039B282B44DC380007F02DFD2D
:10C4D000039B002B00DC0496059807F026F9002842
:10C4E00006D0012362699A43130004221343636157
:10C4F00009A806F02AFF002504226369134234D0FC
:10C50000FF213800C826FEF717F80025B600A369FA
:10C5100002229B5EAB4223DD200029B2183006F0D8
:10C52000DAFE0023010038001A007430FCF74CFFDB
:10C530003000FCF7F9FB380007F0F7FCC820FCF7E7
:10C54000F3FB0222636913420AD10135DFE7039B43
:10C550000433B6E7039BFE2BBEDD00230493BBE749
:10C56000FA208000FCF7E0FB0025022263691342F9
:10C570001ED01E0006321640134224D0214909A8BD
:10C58000FCF7D2FE09A90AA806F0ECFE00220AA9CF
:10C590001300019200923800FDF7E0FE0AA806F0B1
:10C5A000D4FE1948FCF7C0FB09A806F0CEFE174DD3
:10C5B0006420FCF7B9FB164B01359D4200DC62E7B5
:10C5C00006F0B1FC5FE7134909A8FCF7ADFE09A925
:10C5D0000AA806F0C7FE330032000AA93800019607
:10C5E0000096FDF7BBFE0AA806F0AFFE09A806F00C
:10C5F000ACFEDDE7A0240020ED720200FD72020017
:10C60000FF72020044730200983A00008C0A000096
:10C610008B0A0000817302005A4BF0B508330360A7
:10C62000816004002520A9B002AB10220391C0183C
:10C63000002105F0EDFB0BAE0123320052483370B0
:10C640000E33195C01321170013BFAD2312202AB78
:10C65000D218537811781B020B43252113AD220009
:10C660006B8202ABC91845230C32029202A83278C1
:10C670001B1818002A70102205F022FB029B64216F
:10C6800018930A230026012702AA521813705B1878
:10C6900002AA9B1831000C221E702F77EE832E8584
:10C6A0001EA819971C9605F0B3FB384B0C223100DD
:10C6B00023A82193229605F0ABFB354B02AA2693C3
:10C6C00046239B1803221120DA7702AB0D32C018E3
:10C6D000310026732796059505F09AFB02AB1F746F
:10C6E0000F232C4806AA195C01321170013BFAD2C3
:10C6F0001D2202ABD218537811781B020B43252060
:10C70000112102AA0BAD127C6B8202ABC9182A70F0
:10C71000C018102205F0D4FA012300272B7505ABB1
:10C7200011930398AF8300F02FFB036829001B6867
:10C73000984713ABDB8BA068A38200F025FB03684E
:10C740000097A18A029ADD680123A847A06800F03B
:10C750001BFB0600142009F08CFE01230500076175
:10C76000082210C006A90793069705F0A9FA0A4BFC
:10C77000EB60B369BB4203D12000B56129B0F0BDC5
:10C780002B61F9E75469020065740200F747020063
:10C79000E947020075740200DB4A0200F0B500248C
:10C7A0000500774BD9B0083303608160C2607549DA
:10C7B00022008480847143A808F04DFA2B001433C2
:10C7C0000126042706931223069A049601930097E4
:10C7D000230043A90394029419A8FFF735FA220015
:10C7E000694943A808F037FA0C232A00049610324E
:10C7F00001930097230043A9039402942EA8FFF706
:10C8000023FA2200614911A808F025FA2A001C32F7
:10C81000079208222300049601920097079A11A913
:10C820000394029443A8FFF70FFA2200584911A875
:10C8300008F011FA542009F01CFE06001220012312
:10C8400004212A00019011A81832049300912300BA
:10C8500001000394300002941700FFF7F5F930004F
:10C860004C4B0822119311AB1900AE62F5623030C7
:10C87000129405F025FA484B0122B36333002933A3
:10C880001A703800079903322C61EC6105F018FA30
:10C8900039000422069805F013FA5E22032302A948
:10C8A0005218D377B2225218D3770A000732FF32D8
:10C8B000D377B21CD37719AB08932EAB220037493C
:10C8C0000993AC8543AB0CA80A930B9608F0C3F907
:10C8D00028223C2002AB9B181B7802AA1218137066
:10C8E00002AB5B8F123002AA12181380292302A90F
:10C8F0005B181900113802AB1022C01805F0E0F9DE
:10C900005022042102AB9B185822197002AB9B18CD
:10C9100008AF1797A8681C8000F036FA036811A9C1
:10C920001B6898477A2202AB9B181B8854322B84D1
:10C9300002AB9B181B885432AB8402AB9B181B883C
:10C94000A8686B8400F020FA0700142009F091FD1C
:10C950000600134B0461082220C00CA90C930D940F
:10C9600005F0AEF90F4BF360BB69A34206D1280076
:10C97000BE61FCF73BF9280059B0F0BD3361F6E722
:10C9800060690200A57402008574020095740200BB
:10C99000B5740200294C0200594B0200C574020014
:10C9A00071CA0100834B0200F0B5040085B01F007E
:10C9B0000CAB1B88103001930E00150006F098FC9C
:10C9C0002000243006F02CFB26806580182009F01A
:10C9D00050FD0826050032000AA902A805F070F9EA
:10C9E0002800320000212F600C3005F011FA3200CF
:10C9F00002A9281D05F064F9064B022220006B6194
:10CA000000230199A5600A43E360A2802362E362E8
:10CA100005B0F0BDAD4B020070B5040092B0806867
:10CA200000F092F9826D0223110019401A421AD1C6
:10CA3000A38D002B17D00D4AE568049210220292B4
:10CA40006A46A185059104AB41CB41C20A0023008F
:10CA500006A8FFF7A9FF2B6828009B6806A998473E
:10CA600006A806F06AFB12B070BDC046ED4B02008E
:10CA7000F0B58DB005904B88828C0E89CC689A42B7
:10CA80000AD1032E38DD62882188012308A806F028
:10CA900039FC043E0434F4E7059A528C9A422BD1B7
:10CAA000032E29DD059B3020DF68238806936388E9
:10CAB0000793124B08930023099309F0DAFCC02373
:10CAC00002936B46050008AA03CA03C32800059B0E
:10CAD0000699079AFFF768FF3B68290038005B68F2
:10CAE0009847002805D0280006F027FB280009F009
:10CAF000BCFC043E0434D3E70DB0F0BDED4B0200A6
:10CB0000002815D0006041608260C3600461456107
:10CB10008661C761444604624C464462544684625E
:10CB20005C46C462644604636E464663744684632E
:10CB3000002A06D0C46B043C043A25681560B44250
:10CB4000F9D18C6BA6464E6BB546002B06D0CC6B4C
:10CB5000043C043B1D682560B442F9D10C6BA4462B
:10CB6000CC6AA3468C6AA2464C6AA1460C6AA046CF
:10CB7000CF698E694D690C69CB688A680868496815
:10CB80007047006041608260C360046145618661F6
:10CB9000C761444604624C464462544684625C4623
:10CBA000C462644604636E46466374468463C46B21
:10CBB000043C043925680D60B442F9D1C76986691F
:10CBC000456904697047006041608260C360046128
:10CBD00045618661C761444604624C4644625446DE
:10CBE00084625C46C462644604636C464463744673
:10CBF000846304697047846BA646446BA546046B46
:10CC0000A446C46AA346846AA246446AA146046A4A
:10CC1000A046C769866945690469C3688268006877
:10CC20004168704710B5041E0CD005F05BFB431E35
:10CC3000E318A34208D922781978013B21705A7071
:10CC40000134F6E7014810BD0020FCE717FCFFFFA8
:10CC5000F0B585B00D1E009029D000260A27C21716
:10CC6000141A4B1E544003932000029639000136DB
:10CC7000019603F0DBFECB17C9185940039B3031F6
:10CC800020009955390003F0EBFD041EECD1009B08
:10CC9000002B04DA2D23029E019A0236AB540023A6
:10CCA0002800AB55FFF7BEFF200005B0F0BD014CDA
:10CCB000FAE7C04617FCFFFF0268084B406810B552
:10CCC000C018C000101803009A4205D81C688C4296
:10CCD00002D31800083BF7E710BDC046FFFFFF1F57
:10CCE00070B5064D04002B68002B02D108F06BFADA
:10CCF000286023689B00EB58636070BD30250020DE
:10CD000070B500280ED10D4D2E68002E08D10830C8
:10CD100009F0AFFB040006604660FFF7E1FF2C60FE
:10CD2000286870BD064A0123116806480C001C40A3
:10CD30001942F6D1036044601360F2E72425002015
:10CD40002025002028250020436810B50400002B72
:10CD500002D1044809F09AF9606803681B69984792
:10CD600010BDC046D5740200436810B50400002B06
:10CD700002D1044809F08AF9606803681B69984782
:10CD800010BDC046D5740200436810B50400002BE6
:10CD900002D1044809F07AF9606803689B699847F2
:10CDA00010BDC046D5740200436810B50400002BC6
:10CDB00002D1044809F06AF9606803685B6A984721
:10CDC00010BDC046D574020010B5040002F09EFBF1
:10CDD000034B1B68002B01D02000984710BDC046B4
:10CDE00038250020F0B58BB0050001F00FFE0020C3
:10CDF00000F0BEFB036807001B6998473B6804000E
:10CE00009B69380098473B6806005B6A3800984782
:10CE10000200288810380B2861D803F083FC063DF7
:10CE20006060605A606060666078AF88200039009A
:10CE300008F065FE22006B7B583201931378A879C5
:10CE40009C46022361460B43137004AB1F800123F1
:10CE500004AA93701300D070019AE91D9A722B00F6
:10CE60000622163305A8099304F02AFF29000B2097
:10CE700004AB06220E31C01804F022FF943463681C
:10CE8000A360A06800282AD0C36804A99847A368B3
:10CE9000002BF4D01B69F3E720002F49AF8808F07E
:10CEA0002EFE2200022058321378A9798343137092
:10CEB00004AB1F809970A0346368A360A068002849
:10CEC0000DD0C36804A99847A368002BF4D01B6950
:10CED000F3E75369002B02D0A888A91D98472900C1
:10CEE000300008F076FB0BB0F0BD636E002BF6D07F
:10CEF000AF79A366A06E0028F1D0C36839009847C7
:10CF0000A36E002B01D1636EF3E71B69F1E70122E9
:10CF10000D27AB7BE91D1A4001925A07920F02922E
:10CF2000DB08062204A8EF57039304F0C9FE019A18
:10CF300004ABDA716A46127A9F711A726A46127BE2
:10CF400020005A722B008C340F33079380302368F3
:10CF500004A99847C3E7C046FFFF0000030007206D
:10CF6000D72B02D90020014A1360704734250020D6
:10CF7000014B18607047C046382500207FB58022DD
:10CF8000A323D205DB00D3580820DB0700D40530EB
:10CF900048221C4B1C4901F0A3F800280AD080B29B
:10CFA000002807D1BFF34F8F184B194ADA60BFF33F
:10CFB0004F8FFEE701230493164B04A81B680193CF
:10CFC000059307F01EFF002802D0072007B000BD20
:10CFD00002A807F014FF0028F7D102A907F00DFFFF
:10CFE0000028F2D10C4801F0ABF880B20028EDD156
:10CFF0000A4801F0AFF880B20028E7D100F0CCFD7C
:10D00000E4E7C046074E02003C25002000ED00E0AA
:10D010000400FA0534250020E5CD0100C9CD01004A
:10D0200080B2002807D1BFF34F8F034B034ADA6069
:10D03000BFF34F8FFEE7704700ED00E00400FA05F4
:10D0400000487047FFFF0000F0B597B005930368F4
:10D0500007AC1B6804910393110023000600A1C9CB
:10D06000A1C30025D36829000C220CA80A930B95B4
:10D0700004F0CEFE35200B4B11AF0F9304AB29000B
:10D080001022C01810953D7004F0C2FE059B7D82F1
:10D090002200009330000499039C01970CABA04739
:10D0A00017B0F0BD294F0200FC3070B5046C0500CC
:10D0B000002C0DD1242009F0DCF9064B446083617B
:10D0C000054B8460C46004614461C46103602864EA
:10D0D000286C70BD4C6A0200346B0200FC3070B5E5
:10D0E000C56B0400002D11D1342009F0C2F9084BA2
:10D0F00085604360074B45610361074B0562C3616F
:10D10000064BC5628362064BE0630360E06B70BD53
:10D110007C6A02006C6A0200DC6A0200EC6A0200AF
:10D12000FC6A0200064B70B50400036040680028EA
:10D1300004D0056909F099F92800F8E7200070BDCE
:10D14000B0690200064B70B5040003604068002817
:10D1500004D0056909F089F92800F8E7200070BDBE
:10D1600080690200064B70B5040003604068002827
:10D1700004D0056909F079F92800F8E7200070BDAE
:10D1800090690200064B70B50400036040680028F7
:10D1900004D0056909F069F92800F8E7200070BD9E
:10D1A000A0690200064B70B50400036040680028C7
:10D1B00004D0056909F059F92800F8E7200070BD8E
:10D1C0004C6A0200064B70B50400036040680028FA
:10D1D00004D0056909F049F92800F8E7200070BD7E
:10D1E0009C6A0200064B70B504000360406800288A
:10D1F00004D0056909F039F92800F8E7200070BD6E
:10D200005C6A0200064B70B50400036040680028A9
:10D2100004D0056909F029F92800F8E7200070BD5D
:10D220008C6A0200064B70B5040003604068002859
:10D2300004D0056909F019F92800F8E7200070BD4D
:10D24000EC6A0200064B70B50400036040680028D9
:10D2500004D0056909F009F92800F8E7200070BD3D
:10D26000DC6A02007FB503791548002B22D0154EE9
:10D27000154C33782000002B1CD102AD280007F09C
:10D2800030FE002810D16B88592B0DD12B78AA883D
:10D29000D91F012910D800920C4A2021200004F047
:10D2A0009BFF0123337004E020222000084905F091
:10D2B00047F8200004B070BD0092064AEDE7C04672
:10D2C000F8740200B6290020962900201A75020081
:10D2D0001275020037750200FC3070B5046C050051
:10D2E000002C0DD1242009F0C4F8064B4460836162
:10D2F000054B8460C46004614461C46103602864B8
:10D30000286C70BD4C6A0200346B0200134B70B580
:10D3100008330360124B0400C3608023114A451C8C
:10D32000FF355B00C250280008F032FE280002F0F2
:10D3300097FC20000C4BB830E360FFF7F3FE2000B1
:10D34000AC30FFF71FFF2000A030FFF70BFF2000DD
:10D350006C30FFF7F7FE200070BDC046606B020026
:10D36000D86B0200EC6C0200C0690200F8B5050041
:10D370000400AC356B68AB60A868002807D0C368B0
:10D3800021009847AB68002BF4D01B69F3E768686D
:10D39000002804D0066909F068F83000F8E7220098
:10D3A00003215832137868608B43137023005C3379
:10D3B000187020000A3007F0FDFE2000343007F01E
:10D3C000F9FE606E002804D0056909F04EF82800C7
:10D3D000F8E72500943560666868002804D006697F
:10D3E00009F043F83000F8E72600A0366860756859
:10D3F000002D05D02F69280009F037F83D00F7E728
:10D400002000290075600C226C3004F001FD200022
:10D41000074BE5672900A3670C22803004F0F8FC75
:10D420002300044A8C33903428001A602560F8BD2C
:10D430000D4F0200FF4E0200434BF0B5083303606E
:10D44000424B060000251F27C360A02304001636A8
:10D4500085B03A0029000571856005744382858294
:10D46000300004F0D5FC802380212000C9019B00FE
:10D4700033840A002B00F5773830009500F084FDE6
:10D480002100403103913A002900039804F0C0FCC8
:10D4900023008022039960339200CD771A80220006
:10D4A00003216432137820008B4313702300683308
:10D4B0001D70274B2900E3660C222567783004F0A5
:10D4C000A7FC2300270088331D60224B0837FB6729
:10D4D000843729000C22380004F09AFC1E4B1F4AA6
:10D4E000FB602300A0333D611A601D4A5D60DA6075
:10D4F0001C4A1D619A61DD61300007F05BFE0398F4
:10D5000007F058FE184B601CE3602300C4331D80F5
:10D510009D70FF3002F08EFB8C235B00E5502300F2
:10D520001933FF335D618023104A5B00E250230012
:10D5300001222000FE3352425A86023B9D63DD6386
:10D540001D6405B0F0BDC046606B0200C0690200FA
:10D55000806902000D4F0200FF4E02009069020038
:10D56000A0690200B0690200D86B0200006D0200E1
:10D5700070B5074D2B68002B07D1A020400008F0A4
:10D5800078FF0400FFF758FF2C60286870BDC04684
:10D590008425002070B50C220D000021040004F049
:10D5A00037FC00232361024B20002560E36070BD3F
:10D5B0001B4F020070B500250400204B29000360BA
:10D5C0001F4B858083601F4BC56043611E4B856187
:10D5D00003621E4B4562C3621D4B05638363C563D3
:10D5E0004430FFF7D7FF200029005830FFF7D2FF63
:10D5F000200029006C30FFF7CDFF2000154B2900DB
:10D6000023607822803004F003FC20002900F022FF
:10D61000F83004F0FDFB2000E93029005022FF30F3
:10D6200004F0F6FB8E239B00E5540B4B29002822C7
:10D63000E01804F0EDFB200070BDC046AC6A0200AB
:10D640005C6A02006C6A02007C6A02008C6A02005A
:10D650009C6A0200A86B02003A02000010B50400A8
:10D66000024B036007F0D4FD200010BD6C6A02007D
:10D6700010B50400024B036007F0DFFD200010BD71
:10D680007C6A0200014B18787047C046B729002019
:10D69000F0B5140000222C4F1E003B7887B00D001F
:10D6A0000190934214D101F065FF0B2200280FD1A5
:10D6B000002E10D003A92230039607F05BFE00284D
:10D6C00009D00622082803D0113843425841021DD0
:10D6D000100007B0F0BD002302AA1000137000F084
:10D6E00057FF0B22031EF3D11132A4001440019AFC
:10D6F0006800024314431F22144914400D7802A805
:10D700009543113A12181380114B092003930223F9
:10D710002C430C7003AC237102AB0522C01804F03B
:10D72000CFFA21000B4800F09DFF002807D0072208
:10D730000428CDD004320828CAD1053AC8E701230D
:10D7400002003B70C4E7C046B729002081200020BA
:10D7500079530200B829002010B5064801F050F8AE
:10D76000031E06D00720042B03D00430082B00D161
:10D77000053810BDB829002073B56B46040003229C
:10D78000581D0E00002104F043FB0F4B01AD1B7828
:10D79000200029002B7001F0FFFA041E04D00420A1
:10D7A000052C00D0073076BD3100280000F092FF34
:10D7B00003002000002BF6D00720042BF3D0043008
:10D7C000082BF0D10538EEE7B829002073B5114CCD
:10D7D0000D00060005222100684604F071FA012DB3
:10D7E00009D00223022D12D10322237893431A0079
:10D7F0000123134302E003222378934323706946F5
:10D80000300007F0B5FD0023984200D00B3318001C
:10D8100076BDC04681200020084B01001B780920FE
:10D8200010B5002B08D0064800F08EFF031E03D071
:10D8300003200E2B00D0001810BDC046B7290020D1
:10D84000B829002013B504680093A46813000A00E7
:10D850000149A04716BDC046FFFF000037B506AC22
:10D860002578046801950093246913000A00014992
:10D87000A0473EBDFFFF0000F0B587B016000DAA1F
:10D880000D00147800216A46518069460CAA12885E
:10D8900001930A80002C1AD101004279F831A2428A
:10D8A0000BD9E700CF5BB7421BD130212034A40055
:10D8B00022580132D27F0A4215D16A46310028002F
:10D8C00007F0BBFD0623002808D0032306E06A46C4
:10D8D0003100280007F0B1FD031EF6D1180007B093
:10D8E000F0BD0134DBE710210A4051424A410020DB
:10D8F00005930CAB0493194B02AC01322680A27045
:10D90000A0809D4207D1FFF733FE03681B6998474B
:10D9100008F0F8F805002100280007F092FD002328
:10D9200082B29A42DAD010000D4A05339042D5D027
:10D930000FD801330828D1D0013B1128CED06A4638
:10D940003100280007F079FD05230028C6D0023BEE
:10D95000C4E7044A06239042C0D0F0E7FFFF00006E
:10D960000330000001340000F0B5040097B0080057
:10D970002E250B9100F0B6FA04ABED1810902A009A
:10D98000012010A907F057FD002802D0032017B08E
:10D99000F0BD2B880B9A0A9093830B9B0A9A1B7DF0
:10D9A000934200D8C9E063791D2B01D90720EEE727
:10D9B0000B9B9B690C930A9B0C9A9B009D586B696F
:10D9C000002B07D16B8B002B04D16B1CDB7F022B50
:10D9D00000D1ADE0280000F085FA002610900D96E9
:10D9E0000C962B0028331B78B3421FD96A6AB30008
:10D9F0009F5834220021352004AB9B18197004ABCA
:10DA0000243AC01804F004FA46214E4B04AA5218D6
:10DA10003800138011A907F091FD002803D07B691D
:10DA20000C937B8B0D930136F6B2DAE76179AB1C70
:10DA30001F31C90061186A1CDB7FD27F0891290061
:10DA40002A310978002007912900293109780691A7
:10DA50000D9905910C990491297F0391298B0291CD
:10DA6000698B01916969009110A908F06AF8002892
:10DA700000D08BE7637907001A00203292001F3331
:10DA80001551DB001B5BEB836379013363712B0062
:10DA900028331B78BB424BD98E218900635C132B42
:10DAA00000D983E76A6ABB009E58342200213520E2
:10DAB00004AB9B18197004AB243AC01804F0A8F901
:10DAC0004620204B04AA1218138011AB1900300015
:10DAD00007F034FD0C90002827D1300000F002FA46
